:020000040800F2
:10000000A80D002099020008E9410008593B0008AA
:10001000E541000825150008E14A0008000000003D
:100020000000000000000000000000001147000870
:100030003515000800000000ED41000815470008D4
:10004000B3020008B3020008B3020008B3020008BC
:10005000B3020008B3020008B3020008B3020008AC
:10006000B3020008B3020008B3020008B30200089C
:10007000B3020008B3020008B3020008B30200088C
:10008000B3020008B302000871100008B3020008B0
:10009000B3020008B3020008B3020008B30200086C
:1000A000B3020008B3020008B3020008B30200085C
:1000B000B3020008B3020008B3020008B30200084C
:1000C000B3020008B3020008B3020008B30200083C
:1000D000B3020008B3020008B3020008B30200082C
:1000E000B3020008B3020008B3020008B30200081C
:1000F000B3020008B3020008B3020008B30200080C
:10010000B3020008B3020008B3020008B3020008FB
:10011000B3020008B3020008D5470008B302000884
:1001200029150008B3020008B3020008B302000852
:10013000B3020008B3020008B3020008B3020008CB
:10014000B3020008B3020008B3020008B3020008BB
:10015000B3020008B3020008B3020008B3020008AB
:10016000B3020008B3020008B3020008B30200089B
:10017000B3020008B3020008B30200080000000048
:10018000B3020008B3020008B3020008B30200087B
:10019000B3020008B3020008B3020008B30200086B
:1001A000B3020008B3020008B302000800F002F82E
:1001B00000F062F814A696E8000CB244B344DA45A5
:1001C00001D100F059F8BAE80F000FA696E8300008
:1001D000A5EB040504EB0607AAEB0704A7F101074A
:1001E0004FEA15154FEA3414A4F10104AC4201D3CF
:1001F00000F042F813F0010F18BFFB1A43F001039F
:1002000000F001F8DBE71847746C0000946C000004
:10021000103A24BF78C878C1FAD8520724BF30C832
:1002200030C144BF04680C60704700007047000094
:100230000023002400250026103A28BF78C1FBD8EF
:10024000520728BF30C148BF0B607047662906F0CF
:100250000282752900F01881002070471FB506F052
:10026000E8F900F04BFD04000020002105F010FD2E
:10027000E0601FBD10B510BD00F040FE1146FFF755
:10028000EDFF04F02FFC00F05EFE03B4FFF7F2FF79
:1002900003BC00F09FFE0000094880470948004762
:1002A000FEE7FEE7FEE7FEE7FEE7FEE7FEE7FEE726
:1002B000FEE7FEE704480549054A064B7047000083
:1002C000C1470008AD010008A8070020A80D0020C4
:1002D000A8090020A809002053EA020C00F0698058
:1002E0002DE9F04B4FF00006002B1FBFB3FA83F54A
:1002F00003FA05F424FA05F65E4012BF1643B2FA7B
:1003000082F502FA05F4C5F120051EBF22FA05FCAC
:1003100044EA0C04203556EA044C4FEA144418BF52
:10032000641C4FF000084FF00009904271EB030C81
:1003300039D3002919BFB1FA81F701FA07F6B0FAEB
:1003400080F700FA07F6C7F120071EBF20FA07FC66
:1003500046EA0C062037B6FBF4FCA7EB0507103F76
:1003600007F01F0BCBF120062CFA06F60CFA0BFB5C
:1003700044BFB3460026202FA4BF5E464FF0000BBB
:100380005BEA060C08BF4FF0010B19EB0B0948EBB9
:100390000608ABFB027C06FB02CC0BFB03CCC01BAC
:1003A00071EB0C01C1E70B46024641464846BDE8E9
:1003B000F08B13B5084318BF4FF0FF300146AFF381
:1003C0000080BDE81C40704753EA020C23D010B5F2
:1003D0004C1084EA530404D54042C1F1000138BFF7
:1003E000491E1B4204D55242C3F1000338BF5B1EB5
:1003F000FFF772FF14F0804F04D04042C1F10001BA
:1004000038BF491E14F0004F04D05242C3F100031C
:1004100038BF5B1E10BD13B540424FF0000070EBBB
:100420000104B8BF012001F0004100281CBF6FF09B
:1004300000414FF0FF30AFF300801CBD0FB41CB57E
:10044000074B06AA7B4469460090059800F00BFC18
:100450000020694600F01AFC1CBC5DF814FB00008B
:100460004508000009684A0501D540B27047C90532
:10047000FCD500B2704709684A0501D5C0B2704783
:10048000C905FCD580B270472DE9F041064600242D
:1004900010687529314616A510D0FFF7E3FF002834
:1004A00002DA404213A507E031688A0701D512A598
:1004B00002E0490704D511A5012401E0FFF7DBFFA5
:1004C00000210A2206F1240709E0B0FBF2FCB0FB90
:1004D000F2F302FB1C00303078541846491C002807
:1004E000F3D123462A463046BDE8F04100F04EB92C
:1004F000000000002D0000002B0000002000000084
:100500002DE9F0474FF0000A89460446C0F820A0C4
:100510002046E1688847002876D0252806D0D4E90F
:1005200001219047206A401C2062F1E7E1682046E3
:1005300000268847C4F81CA005460027C4F818A068
:100540002A2D09D0284605F09BFB38B304EB870819
:10055000303DC8F8185019E059F8041B204604EB48
:1005600087029161E1688847012F054618D1E0694B
:10057000002820DA26F020061DE0D8F8180000EB4D
:10058000800005EB40003038C8F818002046E168CC
:100590008847054605F074FB0028EED1012F0AD0EC
:1005A0002E2D08D12046E16888477F1C0546022F82
:1005B00046F02006C4DBA069002803DA404246F07A
:1005C0000106A061F00701D026F010066C2D0AD0BC
:1005D000682D08D04C2D39D06A2D35D0742D35D0EA
:1005E0007A2D33D016E0E1682F4620468847B8427E
:1005F00005460AD16C2F27D04FF48060E16806438E
:1006000020468847054605E027E06C2F1AD04FF4B6
:10061000807006430DB3A5F14100192802D820359A
:1006200046F400664A462946204626604E46FFF7B5
:100630000DFE80B101280BD0F61D26F0070000F159
:10064000080965E74020E4E78020D7E70020D5E7E8
:1006500006F104095CE7284661E7206ABDE8F087F7
:1006600010B5431C02E010F8011B71B18107FAD1EB
:100670004FF0013202C88C1A8C4314EAC211F9D02F
:10068000C01A0A0603D0C01E10BDC01A10BD0A044D
:1006900001D0801E10BD0902FCD0401E10BD032AEF
:1006A00040F2308010F0030C00F0158011F8013B8F
:1006B000BCF1020F624498BF11F801CB00F8013B76
:1006C00038BF11F8013BA2F1040298BF00F801CB3A
:1006D00038BF00F8013B11F0030300F0DC82083A58
:1006E000C0F0088051F8043B083A51F804CBA0E868
:1006F0000810F5E7121D5CBF51F8043B40F8043BBD
:10070000AFF30080D20724BF11F8013B11F801CBF1
:1007100048BF11F8012B24BF00F8013B00F801CBC2
:1007200048BF00F8012B704702F0FF0343EA0322A1
:1007300042EA024200F002B84FF0000200B5134650
:1007400094469646203922BFA0E80C50A0E80C50F1
:10075000B1F12001BFF4F7AF090728BFA0E80C50A2
:1007600048BF0CC05DF804EB890028BF40F8042B9B
:1007700008BF704748BF20F8022B11F0804F18BF08
:1007800000F8012B70477047704770472DE9F0471C
:100790000D4699469246044600F1240801688806F1
:1007A00004D5E06921F01001216000E00120A84299
:1007B00001DD471B00E00027A1697A1902EB09005F
:1007C000081AA0612078C00602D42046AFF300804A
:1007D000002608E0D4E901211AF806009047206AB3
:1007E000401C761C20624E45F4DB2078C0060AD5FA
:1007F0002046AFF3008006E0D4E901213020904785
:10080000206A401C2062381EA7F10107F4DC07E0D3
:10081000D4E9012118F805009047206A401C2062A5
:10082000281EA5F10105F3DC2046AFF300802078F7
:10083000000602D50220BDE8F0870120FBE72DE984
:10084000FF4F0C461E464FF0FF378BB0D2E9000138
:10085000DDF860800A908A46C1F30A5505B93D4625
:10086000002108464FF00000BAF1000F00F44000EC
:1008700005DA00EB80004FF4400101EA50004FEA36
:100880009059B9F1010F00DDB9460A9850EA4A00C3
:100890000ED044F61050A5F2FF3545432F14B8F1A1
:1008A000000F1ED07542291E1EDDC9F100021CE09A
:1008B000B8F1010F4FF0000001D0302103E0F24306
:1008C00005E02154401CB042FBDB304600220021F1
:1008D00021540B99C1F80880C1E900200FB0BDE890
:1008E000F08FBD1B6D1CDEE74A4600DA694206A8A0
:1008F00000F08EFA06AB93E8070003AB83E807002D
:1009000050460A9904F0DCFD8DE80700A0F5005080
:100910001F3800900398002D0ADD42F21F014A465D
:100920000844002303A90390684605F045F809E050
:10093000A0F500504A461F38002303A903906846DB
:1009400005F04FF88DE807000004000C03D04FF0CD
:10095000FF30410800E01046B8F1000F03D000223C
:10096000009215461EE0751E05D400F0CBF930321A
:1009700062556D1EF9D5B3460122084302D000220C
:100980007F1C04E02078302801D100227F1E002A3D
:10099000099784D01DE0112D07DA00F0B3F9303249
:1009A00062556D1C50EA0102F5D1084302D000984F
:1009B000C8B10EE00021681E05E0235C625C635450
:1009C0002254401E491C8142F7DBAB46A81B401E47
:1009D0000990002004F80B000B98099AC0F80880D1
:1009E000C0E9002B7AE711264FF0000857E72DE900
:1009F000F04F88460446D21D22F0070191B0D1E99C
:100A00000001CDE90A0105F023F902460B98C00F59
:100A100001D02D2007E02068810701D52B2002E0BE
:100A2000202101EAC000032A099001D0072A05DB32
:100A300003464146204600F0ABF90BE120788006E2
:100A400001D5E06900E00620B8F1650F814606D0C7
:100A5000B8F1660F18D0B8F1670F70D131E00020FF
:100A6000B9F1110F009001DB112301E009F101033D
:100A70000AAA01A90CA8FFF7E2FEDDE90C70002626
:100A800009F10105834647E001204B4600904FF0F5
:100A900000470AAA01A90CA8FFF7D1FEDDE90DB0B5
:100AA0000C995D46002610B909F101000D18B9EB4B
:100AB000050003D4C0F1FF3609F10105A5EB0900DB
:100AC0002BE0B9F1010F01DA4FF001090020B9F173
:100AD000110F0090484601DD112300E003460AAAE9
:100AE00001A90CA8FFF7ABFEDDE90C704D4600260E
:100AF0008346207800070AD4AB4500DA5D4601A89A
:100B0000012D04DD411911F8011C302907D04F4592
:100B100002DA17F1040F04DA012082460FE06D1E9D
:100B2000EEE7002F02DCED1B3E4403E0781CA842F8
:100B300000DD7D1CB81B00F1010A4FF00047207852
:100B4000000703D4AA4501DB4FF0FF3A0021B7F1BB
:100B5000004F0DF143088DF8431024D002202B23C1
:100B6000002F01DA7F422D230A21021EA0F101008D
:100B700000DC5FB197FBF1FC97FBF1F201FB1C7C01
:100B800017460CF1300C08F801CDEEE7A8F1010092
:100B900003702188090501D5452100E06521A0F1F8
:100BA000010800F8011C09980FA9A1EB0807FF1D17
:100BB00000B10120411901EBEA70A1693844081A1B
:100BC000401EA0612078C00602D42046AFF300800A
:100BD000099828B1D4E901219047206A401C20627D
:100BE0002078C00622D52046AFF300801EE0002EFC
:100BF00004DBB34502DD01A8805D00E03020D4E9CC
:100C000001219047206A401C2062761CAAF1010055
:100C10005FEA000A0AD100F071F8C0680168405C20
:100C2000D4E901219047206A401C2062281EA5F1CA
:100C30000105DCDC07E0D4E9012118F8010B90473D
:100C4000206A401C2062381EA7F10107F3DC204611
:100C5000AFF30080032011B041E6000001694A1C97
:100C600002610878704700B58FB0CDE901310021ED
:100C7000059105497944CDE9031011466846FFF70F
:100C80003FFC0FB000BD0000E5FFFFFF0A6802F85F
:100C9000010B0A60704710B5203AC0F00B80B1E834
:100CA0001850A0E81850B1E81850A0E81850203AA1
:100CB000BFF4F5AF5FEA027C24BFB1E81850A0E8AA
:100CC000185044BF18C918C0BDE810405FEA827CC4
:100CD00024BF51F8043B40F8043B08BF7047D207DB
:100CE00028BF31F8023B48BF11F8012B28BF20F87C
:100CF000023B48BF00F8012B7047000000487047D6
:100D00003800002030B5B0F10A0271F100034FEA5B
:100D1000900E4EEA817EB0EB0E0061EB91014FEA3E
:100D2000101E4EEA017E10EB0E0041EB11114FEA4E
:100D3000102E4EEA016E10EB0E0041EB11214FEA2E
:100D4000104E4EEA014E10EB0E0041EB11414018DF
:100D500041F100014FEAD00040EA41704FEAD10171
:100D60004FEA810444EA907410EB800544EB0104DF
:100D70006D1944EB0404521BA3414FF0000348BF1C
:100D80000A3200D530BD401C41F1000130BD0000E9
:100D90002DE9F0411F46044603260168072A01F4A5
:100DA000006004DB08B116A505E016A503E008B154
:100DB00015A500E015A521F010002060A069C01E57
:100DC000A0610FB1401EA0612046AFF300804FB17B
:100DD000D4E9012138469047206A401C2062C01C9B
:100DE000206206E0206AFAE7D4E9012115F8010B38
:100DF0009047761EF8D22046AFF30080BDE8F08120
:100E00004E414E006E616E00494E4600696E6600AE
:100E10002DE9F047814616468AB0354878440DC81A
:100E20008DE80D0032487844801C03AC0DC884E87E
:100E30000D0041F69B300844372190FBF1F290FB06
:100E4000F1F5A5F1800501FB12041B3C02D56442BB
:100E5000012000E00020DFF898A080460027FA4437
:100E6000AAF1BE0A0EE0E0070AD03246684607EB58
:100E7000470101230AEB810104F0B3FD8DE807006F
:100E800064107F1C002CEED1194F7F44AE3F19E057
:100E9000E80715D007EB04100DF1180A90E80E00D2
:100EA0008AE80E00C068F04201D1981908903246D5
:100EB000012306A903A804F094FD03AB83E807000F
:100EC0006D10641C002DE3D14FF0010332466946DA
:100ED000B8F1000F03A802D004F06EFD01E004F0A9
:100EE00080FDC9E90001C9F808200AB0BDE8F08713
:100EF000B858000000487047180000207546FFF7FA
:100F0000F9FFAE4605006946534620F007008546C6
:100F100018B020B5FFF7CEF9BDE820404FF000062D
:100F20004FF000074FF000084FF0000BAC46ACE864
:100F3000C009ACE8C009ACE8C009ACE8C00921F0C0
:100F400007018D46704710B50446AFF30080204678
:100F5000BDE81040FFF799B930B44FF0013C50F8AC
:100F6000042B51F8043BCCFA52F4D51A20D1FCB929
:100F700050F8042B51F8043BCCFA52F4D51A17D18F
:100F8000B4B950F8042B51F8043BCCFA52F4D51AFA
:100F90000ED16CB950F8042B51F8043BCCFA52F442
:100FA000D51A05D1002CDAD030BC4FF000007047C4
:100FB00029BAB1FA81F111F01801D1F12000844071
:100FC000F2D1CA40CB4012F0FF0213F0FF0330BC55
:100FD000D01A704701491820ABBEFEE72600020078
:100FE000704700000146806B036C026C13F0500FD9
:100FF00008D0D20648BF00F067BB806BC26C0846C1
:10100000104700BF42F40071016401688A6812F061
:10101000405F01D000F04EBB027E002AFAD1CA6ABE
:1010200012F4700F02D08A685205F3D44A6822F095
:1010300020024A60016C21F480710164016CC904D2
:1010400048BF00F037BB016C41F00101016400F0C2
:1010500031BB0000806B40210164416C41F0040110
:10106000416400F031BB0000806B00F02BBB00003E
:1010700040F2CC50C2F2000000F028BB2DE9F04F46
:1010800085B0984617468B46824603F04FFC0020F9
:101090008DF81200B6208DF8130040F274604FF402
:1010A0007A7501260DF11304C2F20000EC21E02252
:1010B0000123CDE90046029501F068FC00286FD1BC
:1010C000642000F065FF40F27460C2F20000EC2181
:1010D000F22201238DF81370CDE90165009401F02F
:1010E00055FC00285CD1642000F052FF40F274608F
:1010F0004FF47A7501260DF11207C2F20000EC21BF
:10110000F2220123CDE90076029501F013FB9DF850
:1011100012009DF81310884242D1DDE90E10F5222D
:10112000800040EA41108DF8130040F27460C2F272
:101130000000EC210123CDE90165009401F026FCBB
:1011400070BB642000F024FF40F274604FF47A79A1
:101150000125C2F20000EC21F5220123CDE9007542
:10116000CDF8089001F0E6FA9DF812009DF81310F2
:10117000884215D14FEA8B0040EA4A1040EA080045
:101180008DF8130040F27460C2F20000EC21F422EA
:101190000123CDE90045CDF8089001F0F7FB28B117
:1011A0004FF0FF3005B0BDE8F08F00BF642000F0C5
:1011B000EFFE0120CDE9007040F274604FF47A76C2
:1011C000C2F20000EC21F4220123029601F0B2FAEF
:1011D0009DF812009DF81310401A18BF4FF0FF3011
:1011E00005B0BDE8F08F00002DE9F04F89B04FF455
:1011F0007A70012140F2F40BCDE9011040F27460E5
:10120000C2F2000BC2F20000EC21D0220123CDF883
:1012100000B001F08FFA9BF80000602840F00081D8
:10122000082007A9CDE9001040F274604FF0FF37A5
:10123000C2F20000EC21F7220123029701F07AFAB2
:101240009DF81D109DF81C009DF81E20090141EA23
:10125000003040EA12119DF82000BDF822209DF8D0
:101260001F300691CBF8281000019DF8211092FA4A
:1012700092F9BBF8022040EA033040EA1111C2EBB8
:101280001010BBF906604043CBF82C10C908BBF91D
:101290000430000BA1EB420170435943801300EB73
:1012A000E12606EB86008030BBF90AA0BBF90C8072
:1012B0000012CBF83090CBF8346004F033FF9FED90
:1012C000920B53EC102B04F0D3FD04F0F7FCB6F5B1
:1012D000FA3585FB05ECAEFB08214FEAE8730EFBFF
:1012E00003114FEA12220CFB081185FB0A474FEA53
:1012F000E67642EA0162BBF8083066F1000A12EBBA
:101300000432A2FB03264FEA073242EA145242EBB0
:10131000212101F5004101FB036740F280017A10B1
:10132000C2F2000152EAE773086000F08D80BBF959
:101330001210BBF91000AEFB0143CDE90343A5FB3E
:101340000064CDF814904FEAE07905FB0944069B50
:10135000E046D4460CFB0040C3F5801A4FEACA743D
:1013600040044FEA5A0540EAD630B4EB4644049BA9
:1013700065EB0006CD170EFB05350398BBF90E3063
:1013800008FB0151201A40F6354901EBC301A0FBCF
:10139000090466EB010101FB0941BBF914A0DDF86A
:1013A0001490FB17FFF710F8420B42EAC142A2FB70
:1013B00002374C13BBF9186002FB0477A3FB06C588
:1013C00002FB0472F71703FB0753BBF9167002FB0D
:1013D0000632A0FB0754FB1700FB03434FEA5C6493
:1013E00001FB0733561644EAC212EF0C47EA4337B3
:1013F00080187141C01941EBD341000A40EA0160F5
:1014000000EB0A1004F0A5FE9FED410B53EC102BEE
:1014100004F0B2FE04F052FC00EE100A16E000BF29
:1014200040F2C410C2F200000021016040F2C81076
:10143000C2F20000016040F28000C2F200000160D0
:1014400009B0BDE8F08F00BF9FED350A40F2C8102B
:10145000C2F20000B9F5004F80ED000A08D140F259
:10146000C410C2F200000021016009B0BDE8F08F95
:10147000BBF82010DBF834004FEA8932A2EB0151AF
:10148000BBF92220A0F5963000FB1211BBF92420F5
:10149000BBF81E70424378434FF40047921207EBAB
:1014A000E020BBF91C3050434FF4001202EBA020A7
:1014B000584301F5804100F50050C913801348439B
:1014C000C1134943BBF81A20C9095143A0EB1110BD
:1014D00020EAE070B0F1C85F28BF4FF0C850000BA1
:1014E00004F037FE9FED0C0B53EC102B04F044FE80
:1014F00004F0E4FB40F2C411C2F20001086009B03C
:10150000BDE8F08F00BF00BF0000000000005940A0
:10151000000000000000703F000000000000503F8D
:1015200000000000FEE7000040F21460C2F200007C
:1015300000F04ABB7047000072B600BFFEE7000033
:101540007047000070B581B00022009290F83C20F6
:10155000012A03D10221084601B070BDD1F800E094
:101560000122BEF10A0F1FFA8EFC80F83C2009D33D
:101570004FEA4C02036812FA8EF2A2F11E0403F144
:101580000C0204E003680EEB4E0403F11002072581
:101590001668A54026EA050515608D68166805FAE7
:1015A00004F4344314604968062907D801EB81012B
:1015B0004A1F194651F8345F0FE000BF0C2901EBB8
:1015C000810105D8A1F12302194651F8305F04E0EA
:1015D000A1F14102194651F82C5F1F24944025EADD
:1015E00004040C600CFA02F20C6842F2043CC4F2EF
:1015F000010C2243ACF54174A3420A6006D00021DD
:1016000080F83C10084601B070BD00BF1221BEF149
:10161000110FC1F2000118BF8E453BD1DCF800204C
:101620008E4522F48002CCF80020DCF8002042F441
:101630000002CCF80020E2D140F21001C2F2000119
:1016400009684DF68362C4F21B32A1FB0212910CB1
:1016500001EB81014900009100990029CFD000BF22
:1016600000990139009100990029C8D000990139E9
:10167000009100990029C2D0009901390091009988
:101680000029BCD000990139009100990029E7D1C7
:10169000B5E700BFBEF1120FB1D1DCF8001021F4A4
:1016A0000001CCF80010DCF8001041F48001CCF807
:1016B0000010A4E740F22C10C2F20000203003F02A
:1016C000A7BE0000704700007047000070B50446D8
:1016D000006806684568B10717D515F0200114D0D9
:1016E000216CC90603D4216C41F400712164816826
:1016F00011F0405F02D1217E002969D02046FFF71A
:10170000D9FF20686FF012010160710714D515F040
:10171000800111D0216CC90603D4216C41F4005121
:101720002164816811F4401F22D02046FFF708FF92
:1017300020686FF00C010160F10706D015F0400140
:101740001CBF01685FEAC17134D1B1060FD515F035
:10175000806108BF70BD616C6FF0200541F002012F
:10176000616405602046FFF7AFFF2068056070BD2B
:10177000816B11F4401F02D081684905D5D44168BE
:101780004905D2D4816811F0405FCED1217E002975
:10179000CBD1416821F080014160206C20F4805061
:1017A0002064206CC005C0D4206C40F0010020648F
:1017B000BBE700BF206C40F480302064204600F07E
:1017C000D1F820686FF001010160B106BFD4CEE707
:1017D000C16A11F4700F03D0816849053FF58EAFDF
:1017E000416821F020014160206C20F48070206469
:1017F000206CC0043FF582AF206C40F001002064F3
:101800007CE70000002804BF0120704710B50446A3
:10181000006C00283ED0206CC00645D4206C41F2FC
:1018200002118843023042F204312064C4F2010103
:10183000086820F4403008600A6894E809101A43E8
:10184000D4F810E00A604168012321F480714160FE
:101850004168C0F6007341EA0E214160416821F001
:1018600040714160416841EA0C014160816821F4A6
:1018700000618160E168826811438160A16A8268C9
:10188000994222F070628260826813D122F0405146
:1018900019E000BF204600F067F80020606484F87B
:1018A0003C00206CC006B9D50120002184F83C1012
:1018B00010BD00BF11438160816821F040518160FB
:1018C000E16A826811438160816821F002018160D0
:1018D0008168227E94F8203041EA420181604168AB
:1018E00083B141F40061416041684EF2000221F48D
:1018F00060414160616ACFF6FF72436802EB41319B
:10190000194301E021F400614160C16A40F2000C1A
:1019100021F47001C162E2696169CFF6F07CC36AAB
:101920000CEB02521A43C262826822F40072826097
:1019300094F83020836843EA42228260826822F46D
:1019400080628260826842EA812181600020606456
:10195000216C012262F301012164002184F83C1012
:1019600010BD00007047000070B586B0044642F21A
:1019700000002168C4F20100002681420596049609
:1019800002D006B070BD00BF43F630010096C4F22D
:1019900002014A6900F5604042F480724A614A6976
:1019A00002F480720092009A00960A6842F00102E6
:1019B0000A60096801F00101009100990621019176
:1019C0000321CDE9021601A900F0F6FA40F21465F0
:1019D00046F21040C2F20005C4F202004FF48061EA
:1019E000C5E9000605F110004FF400624FF4005302
:1019F0004FF4807C80E80E102846C5E90266C5E9F0
:101A0000086600F0C1F9002818BFFFF795FD122005
:101A100000210022A563AC6301F018F9122001F047
:101A200003F906B070BD0000B0B582B004460020D6
:101A3000019094F83C00012802D1022002B0B0BD10
:101A400094460A460120216884F83C008868C00753
:101A500029D188684DF6836540F00100886040F226
:101A60001000C2F200000068C4F21B35A0FB05059F
:101A7000A80C00EB400001900198A0B1019801383A
:101A80000190019878B1019801380190019850B106
:101A9000019801380190019828B10198013801900E
:101AA00001980028EAD18868C00503D5886820F429
:101AB000807088608D68206CED0709D140F01000BF
:101AC0002064606C40F001006064002002B0B0BD92
:101AD00040F20175A84300F5807020644868400515
:101AE00004D5206C012565F30D302064256C0020A1
:101AF000ED044FF0000544BF656C25F006056564F4
:101B000084F83C00A06B40F6E57541F26903C0F62D
:101B10000005C0F60003C0E90F5341F25503C0F6BB
:101B20000003C3646FF022030B604B6842F20805A8
:101B300043F080634B608B68C4F2010543F480730B
:101B40008B604C31634600F0D1F9D5F8FC12206867
:101B5000C9060FD0A5F108018842B6D1286810F057
:101B6000405FB2D1286840F080402860002002B079
:101B7000B0BD00BF42F20001C4F20101884217D09B
:101B800042F20021C4F2010188420DD042F200115C
:101B9000C4F20101884298D1D5F8FC12C90607D0D9
:101BA00005F5FC71884290D1D5F8FC12C9068CD499
:101BB000816811F0405F7FF488AF816841F0804117
:101BC0008160002002B0B0BDF0B581B004460020B5
:101BD000009040F21000C2F200000268D4E91660E2
:101BE00048F2B51337680821C1F64E3381403942B7
:101BF000A2FB03250CD0226813685B0708D5136885
:101C000023F004031360B160616D41F0010161656F
:101C100001218140394208D022685269120604D558
:101C2000B160616D41F0020161650421814039427A
:101C300008D022681268920704D5B160616D41F046
:101C40000401616510218140394217D02068026883
:101C5000120713D5B16002680168520308D4C905A0
:101C600008D4016821F008010160216C21B905E068
:101C700008033FD4216C09B120468847E16D20203C
:101C800000FA01F23A4241D020680368DB063DD5F4
:101C9000B26094F835300268052B1BD122F0160291
:101CA0000260426922F080024261226C0AB9A26C91
:101CB0001AB1026822F0080202603F208840B0603A
:101CC000012084F83500216D0020002984F83400BB
:101CD00052D157E00168520310D4C90512D40168EB
:101CE00021F010010160012084F83500002084F803
:101CF000340007E0A16C0029BED1BFE7080301D47E
:101D0000616C00E0E16B09B120468847606DC8B3A3
:101D1000606DC0072ED0052084F835002068A90A20
:101D2000026822F001020260009A01328A420092A7
:101D30001AD80268D20717D0009A01328A4200925C
:101D400012D80268D2070FD0009A01328A4200925C
:101D50000AD80268D20707D0009A01328A4200925C
:101D600002D80268D207DFD1012084F835000020B4
:101D700084F83400E16C29B1204601B0BDE8F040A0
:101D8000084700BF01B0F0BD2DE9F041044600F066
:101D9000E3F9ECB10546022084F835000020216803
:101DA00084F83400086820F00100086021680868A1
:101DB000C00711D000F0D0F9401B0528F6D9032543
:101DC00020230320636584F83550BDE8F08100BF0F
:101DD0000120BDE8F08100BF086848F23F02CFF261
:101DE0001002D4E9013500EA020C04F10C0898E86D
:101DF000C10143EA0C032B431843D4E9072E3043B7
:101E000038431043626A40EA0E00042A40EA08039D
:101E10001CD1206BD4E90A2E40EA0E00184308605A
:101E20004869BEF1000F20F0030040EA020040F0D4
:101E3000040C11D0B8F5005F36D0B8F1000F45D1D1
:101E4000022A46D0012A3BD032B942E00B604869F1
:101E500020F0070040EA020C01F0F8004AF6AB223D
:101E60001038CAF6AA22A0FB02231A0946F67463A8
:101E7000C1F814C0C0F600039A5C40F2FF335F283B
:101E80004FF03F0021EA030100FA02F088BF04315D
:101E9000C4E916128860002301250020636584F8D8
:101EA0003550BDE8F08100BF032AD5D80125402375
:101EB0000120DFE802F0030E030500BF82E700BF48
:101EC000AEF1C070B0FA80F0400904E0032A04D3F8
:101ED000C2D1CEF300600028BED0012540230120EE
:101EE000636584F83550BDE8F081000090F834C097
:101EF000BCF1010F04BF0220704770B54FF0010C18
:101F000080F834C0D0F858E090F835C0BCF1010F2B
:101F100038D14FF0020C80F835C04FF0000CC0F8FB
:101F200054C0D0F800C08468056CC06DDCF8006057
:101F3000402C26F48026CCF80060CCF804300B4608
:101F400004BF13460A463F2101FA00F0CCF80830DE
:101F5000CCF80C20CEF80800DCF8000040F01600A9
:101F6000CCF800002DB1DCF8000040F00800CCF8FF
:101F70000000DCF8000040F00100CCF80000002078
:101F800070BD00BF002180F83410022070BD000039
:101F9000B0B5044600F0E0F8054640F20000C2F299
:101FA00000000078611C18BF044400BF00F0D4F8A2
:101FB000401BA042FAD3B0BD2DE9F04F82B000F132
:101FC0003E4707F1FF77860546EA972742F200462B
:101FD000C4F202060A2243F6004EB04208BF0922AC
:101FE000C4F2010E092F38BF3A46002600274FF0F1
:101FF0000008009209E000BF08F101080237B8F1BB
:10200000100F06F1040600F0A3800D68012202FA09
:1020100008F415EA0409EFD0D1F804B003220BF05C
:10202000030CACF10105BA40012D6FEA020A0FD88A
:102030008268CD6802EA0A02BD402A438260426893
:10204000A243CBF3001404FA08F42243426005E0F3
:10205000BCF1030F02D14FF0030C1EE0C2688C6884
:1020600002EA0A02BC402243BCF1020FC26014D152
:102070006FF0030202EA58020244D2F820C006F0D0
:102080001C040F230D69A3402CEA0303A5402B4336
:102090001362D1F804B00BF0030C02680CFA07F3DA
:1020A00002EA0A021A431BF4403F0260A4D0002255
:1020B00043F644030192C4F202031A684FF6084C37
:1020C00042F480421A601A68CFF6FF7C02F4804224
:1020D0000192019A28F00302724452F80C3006F083
:1020E0000C050F24AC40A343009C04FA05F52B43D8
:1020F00042F80C30DEF808204B6842EA090543F646
:102100000C4CDC0258BF22EA0905CEF80850C4F294
:10211000010CDCF800209C0242EA090558BF22EAC3
:102120000905CCF80050DEF804209C0342EA0905BA
:1021300058BF22EA0905CEF80450DEF80020DB0380
:1021400042EA090558BF22EA0905CEF8005053E7D4
:1021500002B0BDE8F08F000040F2A470C2F20000AF
:102160000068704790F83D20202A1CBF022070476D
:10217000242280F83D200268136823F001031360D5
:10218000536A23F010035362536A19435162116872
:1021900041F001011160202180F83D1000207047BE
:1021A00090F83D20202A1CBF02207047242280F88E
:1021B0003D20026889B2136823F001031360D2F84E
:1021C00024C04FF6F07303EA0C03194351621168FF
:1021D00041F001011160202180F83D10002070477E
:1021E000002804BF01207047F0B581B0044690F884
:1021F0003D0028B9002084F83C00204600F074FC23
:10220000242084F83D002068016821F0010101606C
:10221000016841F400410160016821F4004101605E
:1022200000F014FE636848F2A16CC0F2010C40F6A5
:102230000011C0F23D0163453CBF48F28041C0F24D
:102240001E01884202D2012001B0F0BD4DF683612B
:10225000C4F21B31A0FB01122168970CD1F804E0F5
:102260004FF496762EF03F0545EA92454D60774350
:1022700048F638160D6AC0F24106A7FB067625F02F
:102280003F07634538BF960C721C3A430A62CA691D
:1022900048F2A0664CF6FF77C0F20106B34222EA8C
:1022A00007020BD801385B00B0FBF3F001306FF38D
:1022B0001F30042898BF04201BE000BFA768013826
:1022C00057B119277B43B0FBF3F001306FF31F3098
:1022D00070B100F5804007E003EB4303B0FBF3F07F
:1022E00001306FF31F3018B100F5004001E000BF6E
:1022F00001201043C8610868D4E9072320F0C0001A
:10230000104318430860886848F2FF3204F10C0754
:1023100090438CCF18431043A6698860C86820F0AA
:10232000FF0038433043C860086840F0010008608F
:1023300000202021206484F83D10206384F83E00B2
:1023400001B0F0BD2DE9F04F83B01E46924688469D
:102350000446FFF701FF94F83D10202924D121689D
:10236000054600BF886980071AD5FFF7F5FE401BB8
:1023700021681A28F6D388698007F3D50020202128
:10238000206384F83D1084F83E00216C022641F061
:102390002001216484F83C00304603B0BDE8F08F92
:1023A00094F83C00012805D10226304603B0BDE870
:1023B000F08F00BF4FF0010984F83C900868C00717
:1023C00003D1086840F0010008600868002720F485
:1023D00000600860242084F83D000020CFF6FF70E4
:1023E0002764E06208F0FE08BAF1010F88BFD14609
:1023F0004FF0A00A4FF0200B04E000BF01374F451B
:1024000000F09A800868002240F48070086020463E
:102410004FF001113346009501F0ECFC21680028D3
:1024200056D1C1F81080FFF797FE21684B694A69C1
:1024300094F83D50A02D054605D013F0020008BFCA
:1024400012F480601AD084F83DB048690A688007A9
:1024500042F400720A6047D46FF48060486100BFA4
:1024600088698007CAD5FFF777FE401B21681A28C4
:10247000F6D388698007F3D54CE000BFB6B100BF42
:10248000FFF76AFE401BB04288BF84F83DA0216878
:102490004A69486994F83D30A02BD4D012F002026A
:1024A00008BF10F48060EBD0CDE700BFFFF754FE0B
:1024B00084F83DA021684A69486994F83D30A02B12
:1024C000C1D012F00202BED110F48060EED0BAE7A3
:1024D00008680326C00544BF4FF4007020643046EE
:1024E00003B0BDE8F08F00BF002602964869029055
:1024F000886902900298886901E000BF80698007BE
:1025000020D5FFF729FE411B20681A29F6D38169DF
:102510008907F3D500202021206384F83D1084F83A
:102520003E00216C41F020012164012684F83C002A
:10253000304603B0BDE8F08F202084F83D00002035
:10254000F3E700BF202084F83D0084F83C6030466B
:1025500003B0BDE8F08F00002DE9F04383B01E46C4
:10256000174689460446FFF7F7FD94F83D102029E9
:1025700024D10546206800BF816989071AD5FFF775
:10258000EBFD411B20681A29F6D381698907F3D531
:1025900000202021206384F83D1084F83E00216C47
:1025A00041F02001216484F83C00022003B0BDE822
:1025B000F08300BF94F83C10012903D1022003B03E
:1025C000BDE8F083012184F83C100168C90703D1FC
:1025D000016841F001010160016840F2020821F444
:1025E00000610160212184F83D10102184F83E1023
:1025F0000021216467626685618DC0F20108218532
:10260000A8F10211E162E16A0A9E11F5803F18BF4C
:1026100001291DD1016841F48071016020464FF00D
:10262000011100223346009501F0E4FB50B120680F
:102630000068C00544BF4FF400702064012003B05F
:10264000BDE8F0832069B0F5804F07D1FE2015E08A
:102650000829DFD0216B1229DCD0DFE7062000EA51
:10266000D9102168F030086108F106012046324691
:102670002B4601F0A5FC0028E0D1FF20216800EAEC
:10268000090008612046414632462B4601F098FC7D
:102690000028D3D10020029020684169029180690E
:1026A0000290029806E000BF204631462A4601F01B
:1026B00043FB18BB208D68B3204631462A4601F003
:1026C00033FDD8B9606A2168024612F8013B0B61FC
:1026D0006262628D013A6285228D531E23854F69A5
:1026E0007F07E1D51B04DFD0437802300B616062C5
:1026F000608D01386085901E2085D5E7206C042808
:102700009CD12068016841F400710160012003B090
:10271000BDE8F0832068016841F400710160202069
:1027200084F83D00002084F83E0084F83C0003B0AB
:10273000BDE8F0832DE9F04784B0994616460F4670
:102740000446FFF709FD94F83D10202927D10546DE
:10275000206800BF816989071CD5FFF7FDFC411B7C
:1027600020681A29F6D381698907F3D50020202132
:10277000206384F83D1084F83E00206C04F13C0A8C
:1027800040F020002064022000218AF8001004B0EC
:10279000BDE8F087A2461AF83C1F012904D10220A7
:1027A00004B0BDE8F08700BF01228AF8002003686A
:1027B000DDE90D180C9ADB0703D1036843F0010330
:1027C0000360036823F400630360222084F83D0063
:1027D000402084F83E000020206462626185608DA4
:1027E000394620850020CFF6FF70E0622046324651
:1027F0004B46CDE9008501F0B1F918B1012004B0D4
:10280000BDE8F087208DA8B102282BD0012835D152
:1028100021680A6822F480620A60002203924A69F1
:1028200003928A690392039A0A6842F400720A606A
:102830002CE000BF0020039020684169039181696A
:1028400003910399016841F400710160202084F82C
:102850003D00002084F83E0000218AF8001004B0FA
:10286000BDE8F08721680A6822F480620A600A687D
:1028700042F400620A600022039202E00021039108
:1028800021684A6903928969039103990427C0F278
:1028900001070CE010690870606A218D01306062E8
:1028A000481E2085618D013961850104CED080B23A
:1028B00003280FD802284AD001282DD120464146AE
:1028C0002A4601F0E9FB002898D12068616A006976
:1028D000E1E700BF204641462A4601F0DDFB002823
:1028E0007FF48CAF2068616A00690870606A2268B2
:1028F000411C208D616201382085638D013B638519
:1029000053695B07D1D580B20328C3D1106820F486
:1029100080601060BEE700BF204639460022434673
:10292000009501F067FA00287FF468AF2068616ABB
:10293000026822F48062026000690870606A218D7A
:1029400001306062481E2085608D01386085204618
:10295000394600224346009501F04CFA00287FF4E6
:102960004DAF2068616A026842F40072026000693B
:102970000870606A2268411C6162218D01392185DD
:10298000618D013961851169417085E72DE9F04359
:1029900083B0994616460F460446FFF7DDFB94F8D0
:1029A0003D10202924D10546206800BF8169890790
:1029B0001AD5FFF7D1FB411B20681A29F6D381698C
:1029C0008907F3D500202021206384F83D1084F886
:1029D0003E00216C41F02001216484F83C0002207B
:1029E00003B0BDE8F08300BF94F83C10012903D187
:1029F000022003B0BDE8F083012284F83C20036884
:102A0000DDE90B180A9ADB0703D1036843F00103E1
:102A10000360036823F400630360212084F83D0011
:102A2000402084F83E000020206462626185608D51
:102A3000394620850020CFF6FF70E06220463246FE
:102A40004B46CDE9008501F013F918B1012003B020
:102A5000BDE8F083208D98B9204641462A4601F012
:102A60006BF988B3206C0428F0D12068016841F428
:102A700000710160012003B0BDE8F0830004EBD0D9
:102A8000204641462A4601F04FFB0028EAD1616A00
:102A90002268084610F8013B1361238D6062581EBE
:102AA0002085678D013F678557697F07E6D5070455
:102AB000E4D048781061881C6062981E2085618D82
:102AC00001396185DAE700BF2068016841F40071CF
:102AD0000160202084F83D00002084F83E0084F846
:102AE0003C0003B0BDE8F083016845F20040C4F249
:102AF0000000814218BF7047B0B586B0002443F68D
:102B000030050194C4F20205296800F5D83041F07F
:102B100002012960296801F0020101910199C02197
:102B200001911221CDE902140321049104210591A0
:102B300001A9FFF741FA0094286940F400102861C8
:102B4000286900F400100090009806B0BDE8B0407D
:102B50007047000040F2000040F2A471C2F2000091
:102B6000C2F2000100780A68104408607047000053
:102B700080B543F60040C4F20200016841F40071E0
:102B80000160016841F480610160016841F4807175
:102B90000160032000F086F80F2000F005F800F037
:102BA00027F8002080BD000070B540F20006C2F298
:102BB000000640F210013278C2F200014FF47A733D
:102BC0000968B3FBF2F20446B1FBF2F1084600F0EB
:102BD0007DFB0F2C4FF0010508D838B94FF0FF30BE
:102BE00021460022002500F031F87460284670BDAF
:102BF00082B0002043F640010190C4F202014A680D
:102C000042F480424A604A6802F480420192019A8A
:102C10000090086840F080500860086800F080501C
:102C20000090009802B07047002848BF704700F03D
:102C30001F01012202FA01F11C2202EAD0004EF229
:102C40000012CEF2000281507047000010B54EF61F
:102C50000C5CCEF2000CDCF80030C3F3022E8EF0D8
:102C60000704042C28BF0424BEF103034FF0FF3EE9
:102C70000EFA04F438BF0023A14399400EFA03F37F
:102C80009A43114300F00F0200F160430901043A36
:102C900003F564436244002848BF02F10C03197035
:102CA00010BD00004EF60C51CEF200010A684FF63E
:102CB000FF031A4060F30A2242F0806040F0FD708A
:102CC000086070474EF61050CEF2000002680329EB
:102CD00022F00402026005D0012904BF30BF704712
:102CE00040BF20BF20BF7047002804BF01207047AD
:102CF0002DE9F04143F60808C4F202080446D8F86A
:102D0000F8030D4600F00F00884207D288F8F85308
:102D1000D8F8F80300F00F00A84277D120688107A7
:102D200017D5410705D5D8F8001041F4E051C8F88F
:102D30000010010705D5D8F8001041F46041C8F82B
:102D40000010D8F80010A26821F0F0011143C8F873
:102D50000010C00740D1D8F8F80300F00F00A842D7
:102D600007D988F8F853D8F8F80300F00F00A84204
:102D70004CD12068410707D5D8F80010E26821F44B
:102D8000E0511143C8F80010000708D5D8F800003A
:102D9000216920F4604040EAC100C8F8000000F05A
:102DA0007DF8D8F8001046F2F062C1F30311C0F6C6
:102DB0000002515C40F2100220FA01F140F20400DE
:102DC000C2F200000068C2F200021160FFF7ECFEE0
:102DD0000020BDE8F08100BF6068811E022907D293
:102DE00058F8081C89015CBF0120BDE8F08111E0A2
:102DF000012807D158F8081C89035CBF0120BDE8F1
:102E0000F08107E058F8081C890703D40120BDE8C9
:102E1000F08100BFD8F8001021F003010843C8F882
:102E20000000FFF799F9064641F28837D8F800000C
:102E3000616800F00C00B0EB810F8CD0FFF78CF9CB
:102E4000801BB842F2D90320BDE8F08140F21000A7
:102E500043F60801C2F20000C4F2020100680968EA
:102E600046F20072C1F38221C0F60002515CC840F4
:102E70007047000040F2100043F60801C2F2000063
:102E8000C4F202010068096846F20072C1F34231DF
:102E9000C0F60002515CC8407047000010B543F610
:102EA0000404C4F20204606800F00C0142F2004025
:102EB0000829C0F2F40007D0042918BF10BD41F260
:102EC0000020C0F27A0010BD216801F03F022168A5
:102ED00023684902C3F3881106D4A1FB0001002333
:102EE000FDF7FAF907E000BF41F20020C0F27A00D6
:102EF0004843B0FBF2F021680222C1F3014102EB2A
:102F00004101B0FBF1F010BD002804BF0120704763
:102F10002DE9F04182B00446007843F60006C00770
:102F2000C4F202060CD0B06800F00C00042840F097
:102F300081803068800303D56068002800F06A81D2
:102F4000207880071BD5B06810F00C0F09D0B0684E
:102F500000F00C00082840F087807068400200F103
:102F600083803068800703D5E068012840F05281F3
:102F70003068216920F0F80040EAC1003060207814
:102F8000000713D4207840072AD4A569002D00F04B
:102F90003C81B06800F00C00082840F0A180012DB1
:102FA00040F01081012002B0BDE8F0816069002886
:102FB00040F20000C4F2472000F07E800121C0F8FA
:102FC000801EFFF7C9F80546706F8007DAD4FFF757
:102FD000C3F8401B0228F7D9032002B0BDE8F081F6
:102FE000306C5FEAC0080AD400200190306C40F0D9
:102FF00080503064306C00F080500190019847F2AE
:103000000007C4F200073868C00547D4386840F4A8
:1030100080703860FFF7A0F8054600BF3868C0052B
:103020003CD4FFF799F8401B0228F7D9032002B0DF
:10303000BDE8F081B06800F00C00082803D170688A
:1030400040023FF576AF6068B0F5803F07D0B0F53D
:10305000A02F40F09B80306840F4802030603068C2
:1030600040F4803030609BE0E06800285CD00020B5
:10307000C4F2472001210160FFF76EF8054600BF4A
:10308000306880073FF574AFFFF766F8401B0228F1
:10309000F6D9032002B0BDE8F08100BFA068012886
:1030A00005D0052854D1306F40F004003067306FF0
:1030B00040F00100306755E00021C0F8801EFFF7A6
:1030C0004BF80546706F80077FF55CAFFFF744F85B
:1030D000401B0228F6D9032002B0BDE8F08100BFF2
:1030E0000027C4F2472700203866FFF735F8022D85
:1030F00005460DD13068800140F19080FFF72CF833
:10310000401B02284FF00300F4D902B0BDE8F08163
:103110003068800179D5FFF71FF8401B02284FF077
:103120000300F5D9F1E700BF0020C4F247200021D9
:103130000160FFF711F80546306880077FF51FAF83
:10314000FFF70AF8401B02284FF00300F4D9DCE730
:10315000316F002821F001013167316F21F0040146
:1031600031677DD0FEF7F8FF054641F2883700BF92
:10317000306F800700F18680FEF7EEFF401BB842FB
:10318000F6D9032002B0BDE8F08100BF3168002805
:1031900021F480313160316821F4802131607BD0AD
:1031A000FEF7DAFF054600BF306880033FF5C8AE82
:1031B000FEF7D2FF401B6428F6D9032002B0BDE819
:1031C000F08100BF7068E16900F480028A4221D179
:1031D000216A00F03F028A421CD147F6C071626A40
:1031E0000140B1EB821F15D1A16A4FF6FF73C903ED
:1031F000994300F44032A1F580318A420AD1E16A54
:1032000000F07060B0EB016F04D1002002B0BDE8A7
:10321000F08100BF012002B0BDE8F08104F11C057F
:103220002FCD084340EA8210D9034FF6FF72914335
:10323000A1F5803140EA05600843706001203866DE
:10324000FEF78AFF044600BF30688001DDD4FEF738
:1032500083FF001B02284FF00300F5D955E700BF9C
:10326000FEF77AFF054641F2883700BF306F8007CE
:1032700008D5FEF771FF401BB8424FF00300F5D9A7
:1032800043E700BFB8F1000F3FF57FAE306C20F090
:103290008050306479E600BFFEF75EFF054600BF50
:1032A000306880037FF54CAEFEF756FF401B642864
:1032B0004FF00300F4D928E74EF21000CEF20000E0
:1032C000016841F00201016070470000411E0020CA
:1032D000B0EB116F1CBF012070474EF21002CEF20E
:1032E000000251604EF62351CEF20001F0230B7024
:1032F00007219060116070474EF21000CEF200007E
:10330000016821F002010160704700007047000071
:103310007047000090F83C20012A4FF0020254D080
:1033200010B580F83D200268D2F804E0D2F808C059
:103330000C682EF07003234341F2FF74C4F20004C2
:10334000A24253600EDC40F2FF73C4F200039A42C3
:1033500016DCB2F1804F2BD040F20043C4F20003E0
:1033600024E000BF40F2FF33C4F201039A4213DCB1
:1033700041F60003C4F200039A4219D0002313E07F
:1033800040F60003C4F200039A4211D040F6004315
:10339000C4F200030AE000BF44F20003C4F20103D8
:1033A0009A4205D040F20043C4F201039A4204D18C
:1033B00049682CF08003194391600121002280F8B4
:1033C0003D1080F83C20BDE81040104670470000DA
:1033D000002804BF0120704710B5044690F83D0056
:1033E00028B9002084F83C00204600F01FF8022095
:1033F00084F83D002068211D01F0F2F9012084F8D5
:10340000460084F83E0084F83F0084F8400084F8C9
:10341000410084F8420084F8430084F8440084F8B2
:10342000450084F83D00002010BD000080B582B04A
:10343000006841F20001C4F20001884214D0B0F1EA
:10344000804F0ED10020019043F64000C4F20200EC
:10345000016841F001010160006800F00100019085
:10346000019802B080BD00BF0020009043F64000EC
:10347000C4F202000168002241F0100101600068FE
:10348000002100F01000009000983620FFF7DEFBCE
:10349000362002B0BDE88040FFF7C6BB90F83D1073
:1034A00001291CBF01207047022180F83D100068EF
:1034B00041F2FF71C4F2000188420DDC40F2FF715D
:1034C000C4F20001884215DCB0F1804F2AD040F2EE
:1034D0000041C4F2000123E040F2FF31C4F20101D7
:1034E000884213DC41F60001C4F20001884219D081
:1034F000002113E040F60001C4F20001884211D01F
:1035000040F60041C4F200010AE000BF44F20001AD
:10351000C4F20101884205D040F20041C4F2010129
:10352000884206D1816801F00701062904BF002006
:103530007047016841F00101016000207047000000
:1035400090F83D1001291CBF01207047022180F82E
:103550003D10006841F2FF72C168C4F2000290425F
:1035600041F00101C1600DDC40F2FF71C4F20001C5
:10357000884215DCB0F1804F2AD040F20041C4F2FD
:10358000000123E040F2FF31C4F20101884213DC64
:1035900041F60001C4F20001884219D0002113E075
:1035A00040F60001C4F20001884211D040F600410B
:1035B000C4F200010AE000BF44F20001C4F20101BC
:1035C000884205D040F20041C4F20101884206D190
:1035D000816801F00701062904BF002070470168D7
:1035E00041F00101016000207047000090F83C208C
:1035F000012A4FF0020200F0C58080B580F83D201E
:10360000D0F800C04FF67772DCF8083023EA0202E7
:10361000CCF808200B684F2B28DC1F2B44DD202B17
:1036200045D0302B43D0402B40F0AE80D1F804E0A1
:10363000C968DCF82030DCF8202022F00102CCF848
:103640002020DCF8182022F0F00242EA011123F0D9
:103650000A0242EA0E02CCF81810CCF82020DCF85E
:10366000081041F0470121F0300180E06F2B27DD89
:10367000B3F5005F48D0B3F5805F7AD0702B40F08F
:103680008380D1E901E3C968DCF8082043EA0E032E
:1036900022F47F4243EA01211143CCF80810DCF800
:1036A000081041F0770162E00BB1102B6CD1DCF80F
:1036B000081021F07001194341F0070157E000BFE5
:1036C000502B35D0602B5FD1D1F804E0C968DCF80D
:1036D0002030DCF8202022F01002CCF82020DCF88A
:1036E000182022F4704242EA013123F0A00242EA9B
:1036F0000E12CCF81810CCF82020DCF8081041F09D
:10370000670121F0100132E0D1E901E3C968DCF87A
:10371000082043EA0E0322F47F4243EA01211143C9
:10372000CCF80810DCF8081041F480411FE000BF1D
:10373000D1F804E0C968DCF82030DCF8202022F061
:103740000102CCF82020DCF8182022F0F00242EA36
:10375000011123F00A0242EA0E02CCF81810CCF84C
:103760002020DCF8081041F0570121F02001CCF8AE
:1037700008100022012180F83D10002180F83C1043
:10378000BDE88040104670470122F3E77047000013
:1037900070B504460068C5680669B10716D515F00E
:1037A000020113D06FF002010161012121778069CC
:1037B000800703D02046FFF7E9FF05E0204600F030
:1037C0008FF8204600F08EF800202077700719D57A
:1037D00015F0040016D020686FF004010161022189
:1037E0002177806910F4407F04D02046FFF7CEFF98
:1037F00006E000BF204600F073F8204600F072F8A3
:1038000000202077300717D515F0080014D0206865
:103810006FF00801016104212177C069800703D09E
:103820002046FFF7B3FF05E0204600F059F8204698
:1038300000F058F800202077F00619D515F0100098
:1038400016D020686FF01001016108212177C0694E
:1038500010F4407F04D02046FFF798FF06E000BF39
:10386000204600F03DF8204600F03CF8002020778C
:10387000F00718BF15F0010002D1300609D412E09C
:1038800020686FF001010161204600F02DF830063C
:1038900009D515F0800006D020686FF08001016125
:1038A0002046FFF733FD700609D515F0400006D01D
:1038B00020686FF040010161204600F029F8B00651
:1038C00058BF70BD15F0200008D021686FF02002AD
:1038D00020460A61BDE87040FFF71ABD70BD0000C8
:1038E000704700007047000040F21071C2F2000102
:1038F000884218BF704780B5FFF7DEFC40F22C10FD
:10390000C2F200002030BDE8804001F099BD000007
:1039100070470000002804BF0120704710B504461E
:1039200090F8410028B9002084F84000204600F0BB
:1039300021F8242084F841002068C16821F4005156
:10394000C160204601F054F82068016921F49041DB
:103950000161416921F02A014161C16841F40051CE
:10396000C16000202021606484F8411084F8421076
:10397000606310BD016841F20000C4F201008142A1
:1039800018BF704780B586B0002143F63002019120
:10399000C4F20202536900F5704043F01003536112
:1039A000536903F010030193019B0191136843F0E5
:1039B00001031360126802F001020192019A4FF4B0
:1039C000C06201920222CDE9022103210491072164
:1039D000059101A9FEF7F0FA06B0BDE880407047F6
:1039E0002DE9F041044690F8410020281CBF022038
:1039F000BDE8F0810D4600294FF0010000F0AA80DB
:103A00001646002A08BFBDE8F0810020606421202E
:103A1000984684F84100FEF79FFBA684E684A168DF
:103A20000646B1F5805F02D12069002862D02F469A
:103A30000025E08C002861D018F1010018D0B8F101
:103A4000000F37D1216808E017F8010B4860E08CBF
:103A50000138E084E08C002851D00868000673D556
:103A6000002FF1D135F8020B00276FF35F20EDE74F
:103A7000216802E00868000609D40868000606D438
:103A8000086800065CBF08685FEA0060F2D51FB1F5
:103A900017F8010B05E000BF35F8020B00276FF3A4
:103AA0005F204860E08C0138E084E08C0028E4D19D
:103AB00025E000BF216800BF0868000608D4FEF7B3
:103AC0004BFB801B404541D82168C868F4E700BF24
:103AD00017B117F8010B04E035F8020B00276FF35C
:103AE0005F204860E08C0138E084E08C0028E3D15E
:103AF00005E000BF0027E08C00289DD12168086800
:103B000040061FD4B8F1000F1ED018F101000FD1EC
:103B10000868400616D40868400613D408684006B2
:103B200010D4086840064FF00000F1D50FE000BF48
:103B3000FEF712FB801B404508D82068C16800686A
:103B40004006F5D5002002E0FEF706FB0320202109
:103B500084F84110BDE8F081FEE700002DE9F04750
:103B600082B0044600689A460B9D0A9E03689146FF
:103B700043F48062026002680F4642F48071016083
:103B800020464FF0011100223346009500F032F933
:103B900050B120680068C00544BF4FF40070206435
:103BA000032002B0BDE8F08740F202082068C0F2AE
:103BB000010807F0FE0707612046414632462B46C2
:103BC00000F0FEF920B1012002B0BDE8F08700BF8F
:103BD0000020019020682A464169019180693146A0
:103BE00001900198204600F09FFAB0B92068BAF120
:103BF000010F09D04FEA19210161204631462A46BA
:103C000000F092FA48B920685FFA89F10161204614
:103C100031462A4600F088FA60B1206C0428D2D1DF
:103C20002068016841F400710160012002B0BDE824
:103C3000F08700BF206800220168334641F480719C
:103C4000016020464FF00111009500F0D3F80028E4
:103C50009FD147F0010C27682046414632462B464B
:103C6000C7F810C002B0BDE8F04700F0A9B90000E5
:103C70002DE9F04383B0044600680D4601680A9FB1
:103C80000B9E41F4807199469046016020464FF0AA
:103C9000011100223B46009600F0ACF850B12068BC
:103CA0000068C00544BF4FF400702064032003B0D7
:103CB000BDE8F083206805F0FE0101610221C0F239
:103CC000010120463A46334600F07AF920B101203E
:103CD00003B0BDE8F08300BF0020029020683246A8
:103CE000416902918069394602900298204600F0AD
:103CF0001BFA58B1206C0428E9D12068016841F40E
:103D000000710160012003B0BDE8F0832068B9F1C3
:103D1000010F0AD04FEA1821016120463946324688
:103D200000F002FA0028E5D120685FFA88F101610D
:103D3000002003B0BDE8F08370B50368044653F873
:103D4000140F400711D40E46481C29D086BB00BF73
:103D50001868400527D4FEF7FFF9236853F8140FBD
:103D6000400737D518684007F2D5002070BD00BF66
:103D700018684007F9D41868400514D4186840073B
:103D8000F3D4186840050ED418684007EDD41868BD
:103D9000400508D4186840074FF0000048BF70BDC8
:103DA00018684005E4D56FF480601860042012E0C4
:103DB000154603E053F8140F4007D6D418684005A1
:103DC000F1D4FEF7C9F9401B2368B042F2D9586913
:103DD0004007EFD4202000212022216384F83D20D9
:103DE00084F83E10226C10432064012084F83C10BB
:103DF00070BD00002DE9F041054600681E461446DE
:103E000001F47F0201338FB242D0DDF81880B2F5A1
:103E1000803F40F0878040693840C01BB0FA80F096
:103E20004009A04240F0C8804EB924E040693840C3
:103E3000C01BB0FA80F04009A04240F0BD80FEF700
:103E40008BF9A0EB08012868B142EFD941693940EC
:103E5000C91BB1FA81F14909A142E7D19BE000BF3A
:103E600040693840C01BB0FA80F04009A0424FF0D2
:103E7000000040F0A280FEF76FF9286841693940E0
:103E8000C91BB1FA81F14909A142E9D183E000BF20
:103E9000B2F5803F24D100BF41693940C91BB1FA56
:103EA00081F14909A14240F0878041693940C91B2D
:103EB000B1FA81F14909A14240F07E80416939405F
:103EC000C91BB1FA81F14909A14275D14169394053
:103ED000C91BB1FA81F14909A142DDD06CE000BFF4
:103EE00081693940C91BB1FA81F14909A14263D105
:103EF00081693940C91BB1FA81F14909A1425BD1FD
:103F000081693940C91BB1FA81F14909A14253D1F4
:103F100081693940C91BB1FA81F14909A142DFD059
:103F20004AE000BF80693840C01BB0FA80F0400909
:103F3000A04241D146B923E080693840C01BB0FAA5
:103F400080F04009A04237D1FEF706F9A0EB080146
:103F50002868B142F0D981693940C91BB1FA81F1B1
:103F60004909A142E8D116E080693840C01BB0FA87
:103F700080F04009A0424FF0000018BFBDE8F0817A
:103F8000FEF7EAF8286881693940C91BB1FA81F166
:103F90004909A142E8D100202021286385F83D107D
:103FA00085F83E00296C41F02001296485F83C0029
:103FB0000120BDE8F08100BF0020BDE8F0810000D5
:103FC000F0B581B0044600681D4643698FB203EA2C
:103FD0000701B94202D1002001B0F0BD4169164687
:103FE00001323FD049053FD4CEB100BFFEF7B4F84F
:103FF000411B2068B14203D941693940B94215D10A
:1040000041693940B942E6D041694905EED52BE016
:1040100041693940B942DED04169490524D4FEF7EF
:104020009BF8206841693940B942F1D0202023E053
:1040300041693940B942CED04169490514D441693A
:104040003940B942C7D0416949050DD44169394069
:10405000B942C0D04169490506D441693940B942E5
:10406000B9D041694905E3D5016841F400710160A7
:104070006FF480614161042000212022216384F8D3
:104080003D2084F83E10226C1043206484F83C10DC
:10409000012001B0F0BD000070B50446006815466F
:1040A00050F8143F5A063DD40E4629B926E000BF09
:1040B00050F8141F490635D40168C90621D4FEF70B
:1040C0004BF8411B2068B142F2D941694906EFD44F
:1040D00000202021206384F83D1084F83E00206CED
:1040E00040F0200018E000BFFEF736F8206850F8D6
:1040F000141F4906ECD50168490613D40168C906A6
:10410000F2D56FF01001016000202021206384F8B7
:104110003D1084F83E00206C2064002084F83C00B0
:10412000012070BD002070BD70B50368044653F8CF
:10413000140F000611D40E46481C29D086BB00BFC0
:104140001868400527D4FEF707F8236853F8140FC2
:10415000000637D518680006F2D5002070BD00BFF4
:1041600018680006F9D41868400514D418680006C9
:10417000F3D4186840050ED418680006EDD418680A
:10418000400508D4186800064FF0000048BF70BD15
:1041900018684005E4D56FF480601860042012E0D0
:1041A000154603E053F8140F0006D6D418684005EE
:1041B000F1D4FDF7D1FF401B2368B042F2D9586912
:1041C0000006EFD4202000212022216384F83D2026
:1041D00084F83E10226C10432064012084F83C10C7
:1041E00070BD0000FEE70000FEE700007047000021
:1041F00080B50246002840F2CC10C2F200004FF415
:10420000806118BFFF22FCF78FFA80BD40F2EE02FA
:10421000C2F2000250809180704700002DE9F04109
:1042200082B040F27460C2F200007821012244F6AC
:104230002063FEF787F84FF0000418B1204602B063
:10424000BDE8F08140F274654FF42E40C2F20005E3
:10425000ADF806000A260DF1060228467821022351
:104260000096FEF779F94FF400580DF10602284642
:1042700078210223ADF806800096FEF76DF94FF421
:1042800080570DF10602284678210223ADF806700A
:104290000096FEF761F94FF43040ADF806000DF1DD
:1042A00006022846782102230096FEF755F94FF4BE
:1042B0004840ADF806000DF1060228467821022399
:1042C0000096FEF749F90DF10602284678210223EF
:1042D000ADF806400096FEF73FF90DF106022846BC
:1042E00078210223ADF806700096FEF735F94FF4F9
:1042F0008040ADF806000DF1060228467821022321
:104300000096FEF729F94FF40140ADF806000DF1D3
:1043100006022846782102230096FEF71DF94FF485
:104320007F40ADF806000DF10602284678210223F1
:104330000096FEF711F94FF42140ADF806000DF19B
:1043400006022846782102230096FEF705F94FF46D
:104350002640ADF806000DF106022846782102231A
:104360000096FEF7F9F84FF42840ADF806000DF17D
:1043700006022846782102230096FEF7EDF84FF456
:104380007C50ADF806000DF1060228467821022384
:104390000096FEF7E1F84FF42440ADF806000DF169
:1043A00006022846782102230096FEF7D5F84FF43E
:1043B0005340ADF806000DF106022846782102238D
:1043C0000096FEF7C9F80DF106022846782102236F
:1043D000ADF806400096FEF7BFF84FF45540ADF833
:1043E00006000DF106022846782102230096FEF70A
:1043F000B3F84FF47040ADF806000DF10602284600
:10440000782102230096FEF7A7F84FF45940ADF843
:1044100006000DF106022846782102230096FEF7D9
:104420009BF84FF40850ADF806000DF1060228463F
:10443000782102230096FEF78FF84FF45A40ADF82A
:1044400006000DF106022846782102230096FEF7A9
:1044500083F84FF49050ADF806000DF1060228469F
:10446000782102230096FEF777F84FF45B40ADF811
:1044700006000DF106022846782102230096FEF779
:104480006BF80DF10602284678210223ADF806806C
:104490000096FEF761F84FF40D40ADF806000DF1FF
:1044A00006022846782102230096FEF755F84FF4BD
:1044B000A050ADF806000DF106022846782102232F
:1044C0000096FEF749F84FF42F40ADF806000DF1C5
:1044D00006022846782102230096FEF73DF84FF4A5
:1044E0003850ADF806000DF1060228467821022367
:1044F0000096FEF731F840F2CC10C2F200004FF403
:104500008061FCF719F900F0B3F840F2EE00C2F256
:104510000000C0F802400124204602B0BDE8F0814E
:104520002DE9F04F89B040F2EE05C2F20005B5F872
:1045300002E091F8008008EB0E077F2F04D8AB88CB
:104540004E78F7183F2F03D9002009B0BDE8F08F4F
:10455000002E009064D02D782038B5FA85F77C09BC
:10456000B2FA82F7029078090790002D18BF012552
:104570004868A21AB2FA82F2019000275009444614
:1045800008950690CDE9033104E000BF002401370F
:10459000B74245D2002CF9D0DA1995B23F2DF6D8A2
:1045A0000298019B06FB007091F8008033F810A080
:1045B00002F00700012303FA00F54FF68070C0F205
:1045C0000F0000EA021B6FEA050C0022059702E0CB
:1045D000013242451ED20EEB02061FFA86F9B9F1EE
:1045E0007F0FF5D840F2CC100AFA02F11BFA86F6DA
:1045F000C2F200000904835D0699DDE9077458BF23
:1046000087EA040103EA0C04002918BF43EA050401
:104610008455DDE70499039B4E78059F4446B6E731
:1046200040F2EE015EFA88F0C2F2000148805DF8C7
:10463000240BBDE8F08F00000378002B04BF00209E
:10464000704770B514460D46461C00BFD8B22946C7
:104650002246FFF765FF16F8011C884204D116F8C0
:10466000013B002BF2D10021BDE8704008467047A5
:104670002DE9F04FC1B00DF1040B40F274660BF15F
:1046800001094FF000086FF07F050A24C2F200060E
:104690004FF0000A40F2CC108035C2F200002F1813
:1046A000AAF150008DF80500304678215A460223C1
:1046B0008DF804800094FDF74FFF304678215A466C
:1046C0000223ADF804800094FDF746FF4FF48050BC
:1046D000ADF80400304678215A4602230094FDF7D5
:1046E0003BFF40208DF80400484639468022FBF706
:1046F000D6FF304678215A4681230094FDF72CFFDF
:10470000B5F5607F0AF1010AC4D141B0BDE8F08F70
:1047100070470000FEF71EBAB0B592B0002443F611
:104720004000CDE90A44CDE908440594CDE90344AD
:10473000CDE901440094C4F202000168012241F075
:10474000805101600068022500F0805000900098C0
:1047500047F200000094C4F20000016862F38F3158
:104760000160006800F44040009000984FF48030F1
:1047700007904FF480000D9004200E906420CDE946
:104780000F050320119006A806920C95FEF7BCFBBE
:1047900010B172B6FEE700BF0F20CDE901054FF45E
:1047A000A05004904FF48050059001A80321039479
:1047B000FEF79AFA10B172B6FEE700BF12B0B0BDB4
:1047C0004EF68850CEF20000016841F4700101609D
:1047D0007047000040F21070C2F20000FEF7D8BF30
:1047E00010B540F6FF3E0368C4F2000E40F2004CE4
:1047F0007045C4F2010C27DCB0F1804F31D040F29B
:104800000042C4F2000290422BD040F60002C4F2F3
:104810000002904225D041F6FF72C4F2000290429D
:1048200029DC70453CDCB0F1804F5FD040F20042A3
:10483000C4F20002904259D040F60002C4F20002D5
:10484000904253D056E000BF40F60042C4F200024E
:10485000904206D0604504D00022C4F2010290428A
:10486000D9D14A6823F07003134341F6FF72C4F2B2
:1048700000029042D5DD43F6FF72C4F2010290427D
:1048800022DC42F20002C4F2000290422ED000224A
:10489000C4F20102904229D0604527D02AE000BF2F
:1048A00040F60042C4F2000290421FD041F60002DE
:1048B000C4F20002904219D041F60042C4F2000254
:1048C000904213D016E000BF44F20002C4F201028D
:1048D00090420BD044F60002C4F20102904205D08F
:1048E00044F20042C4F20102904203D1CA6823F4A8
:1048F0004073134323F080024B69D1F800E08C68C9
:104900001A430260C46240F48062C0F828E0624545
:1049100004BF09690163012141610169C90708BF39
:1049200010BD016921F00101016110BD70B58CB0AD
:1049300040F27464192004AEC2F200044FF0FF3557
:10494000CDE900602046EC21882201230295FDF785
:10495000F1FE06F119000721CDE900012046EC2106
:10496000E12201230295FDF7E5FE049940F2F400EF
:104970009DF815209DF81430C2F20000C0F8021016
:1049800043EA02219DF81730C18042EA03219DF8D5
:1049900019209DF81630018143EA02214181DDF89A
:1049A0001A10DDF81E20BDF82230C0E90312099963
:1049B0009DF82820C0F81610BDF8291042839DF8F4
:1049C0002B2081839DF82D10C2839DF82C2083829B
:1049D00001F00F0343EA02129DF82E3002841A01FF
:1049E00042EA11119DF82F20418482840CB070BDE1
:1049F00010B504460068D4E902C22369016921F4B4
:104A0000405111430161626943EA0C01E3691143BA
:104A1000C268194349F20C639A431143C16041696A
:104A2000A26921F4407141F20043114340F48062D5
:104A3000C4F201039A42416102D1FEF71BFA01E080
:104A4000FEF704FAE16963681922B1F5004FA0FB93
:104A5000020123D15A00DB0FFBF73EFC48F21F5145
:104A6000C5F2EB11A0FB01235A094FF69C73C0F667
:104A7000FF7303F1805302FB0300322303EBC000FA
:104A8000A0FB01014FF4F87000EA111000EB0210D6
:104A9000C1F3421108442168886010BD9A009B0F41
:104AA000FBF71AFC48F21F51C5F2EB11A0FB0123E2
:104AB0005A094FF69C73C0F6FF7302FB03003223C2
:104AC00003EB0010A0FB0101F02000EA511000EB05
:104AD0000210C1F3431108442168886010BD000032
:104AE000FEE7000088B041F20004C4F20004FEF7C3
:104AF0003FF8FFF711FE002543F630000495C4F29D
:104B000002000168002241F080010160016801F0AB
:104B10008001049104990495016841F0010101604C
:104B2000016801F00101049104990495016841F0C4
:104B300002010160016801F00201049104990495E9
:104B4000016841F4800101600068002100F48000E8
:104B5000049004983820FEF779F83820FEF764F8BE
:104B600040F2746004F58841C2F2000041F68022F0
:104B70004FF48043C0F2060280E82600C0E90353E8
:104B8000C0E90555C0E90755FDF72AFB10B172B61B
:104B9000FEE700BF40F27460C2F200000021FDF7A2
:104BA000E1FA18B172B600BFFEE700BF40F27460D0
:104BB000C2F2000000210026FDF7F2FA10B172B631
:104BC000FEE700BF40F2CC500123C2F20000C0F665
:104BD000007304F588310125C0E90A3602230796DF
:104BE0004FF44032057680F82060C36180F8305081
:104BF00080E84600C0E903654561FCF703FE18B193
:104C000072B600BFFEE700BF0020069040F2CC5015
:104C1000C2F2000004A9CDE90455FCF793FC18B1D9
:104C200072B600BFFEE700BF0220CDE9040040F2EB
:104C3000CC50C2F2000004A9FCF784FC10B172B69B
:104C4000FEE700BF40F210700021C2F200004CF2FB
:104C50004F3240F28F13CDE90411C0E90042C0E9A0
:104C600002138161FEF7B4FB10B172B6FEE700BF1C
:104C700040F21070C2F2000004A9FEF74BFB18B11D
:104C800072B600BFFEE700BF40F2C8600021C2F26A
:104C900000004FF080424FF0FF330791CDE905113E
:104CA000CDE90211C0E90021C0E90213016181616F
:104CB000FEF78EFB10B172B6FEE700BF4FF48050D6
:104CC000049040F2C860C2F2000004A9FEF78EFC16
:104CD00010B172B6FEE700BF40F2C860C2F2000039
:104CE00002A9FEF717FB08B172B6FEE740F2587052
:104CF00004F58031C2F2000000230C264FF4E132AB
:104D000080E80E00C0E90333C0E90563C361FEF724
:104D100001FE08B172B6FEE740F21070C2F2000068
:104D2000FEF70EFC00B1FEE7242504260024022035
:104D3000012101220323C4F20005CDE90046FCF75E
:104D40009DF9FFF76BFA40F27806C2F2000640F2D6
:104D5000CC5006F10C01C2F200000222FCF764FE06
:104D600040F2C860C2F20000FEF798FB40F22C103F
:104D7000C2F2000000F12004204600F0F7F92046BE
:104D800000F0D8F9FEF7B8FA286801F0E2F941EC32
:104D9000100B0020012186ED120BFDF793FF286810
:104DA00001F0D7F9326841EC100B002A86ED140BA4
:104DB000E8D196ED120B96ED108B53EC102B01F011
:104DC000D9FA02460B4651EC180B00F0A9FF41EC52
:104DD000100B86ED100BD5E710B5044600780138AE
:104DE000042825D8DFE800F0040A1C22260000BFB2
:104DF000607CE8B10520207010BD00BF607CB8B1B8
:104E0000E06800210F2821703CD1204600F0BEF957
:104E1000204600F0C9F8032001212174207010BD44
:104E2000607C28B100202070E0601EE0607CB8B19A
:104E300010BD00BF607C0028FAD16079002808BF4F
:104E400010BD0020D4E902122070204600F01AFBA9
:104E5000E0680130E060022001212174207010BD63
:104E600020790028E4D000202070204600F000FBCC
:104E7000E168204600F018FB012001212174207018
:104E800010BD00BF0420207010BD000070B50446A6
:104E9000807C002818BF70BD606A01250128A574B8
:104EA00014DBE269D4E905130026895C013B9A42D0
:104EB000B8BF561C01380229E661606204D001299E
:104EC00004D10120207101E001206071207C0026C6
:104ED000002818BF012001E065710020227800F051
:104EE00001016174511E042926743FD8DFE801F0E6
:104EF0000408161C2A0000BFC00737D0052034E084
:104F0000C00733D0E06826700F282DD1204600F06E
:104F10003DF9204600F048F8032121E0C00725D0E4
:104F20002670E66005E000BFC0071FD12079E8B118
:104F30002670204600F09CFAE168204600F0B4FAA2
:104F400001210DE0C00711D1607978B1D4E90212D6
:104F50002046267000F096FAE06802210130E060F9
:104F6000012020742170B9E704202070606A667403
:104F70000128A68014DBE269D4E905130138895CB5
:104F8000013B9A424FF00003B8BF531C0229E36172
:104F900060623FF4A1AF012902D1257100209DE795
:104FA0000020A07470BD00002DE9F0418AB00020FF
:104FB000FFF71EF940F27807C2F20007B86801F067
:104FC000C7FA6C4602460B4642A12046FBF736FA6A
:104FD0000A200A21FFF71AF940F20805C2F200057B
:104FE0002046294601224FF00108FFF725FB0A2041
:104FF0001E21FFF70BF9B7F8582039A12046FBF71F
:105000001DFA204629460122FFF716FB0A2032210D
:10501000FFF7FCF840F22C10C2F20000028833A126
:105020002046FBF70BFA204629460122FFF704FB36
:10503000FFF71EFB2424C7F80080C4F20004206898
:1050400001F087F897ED0C1B41EC100B53EC112B82
:1050500005460E4687ED0A0B01F08CF941EC100B6A
:1050600087ED0E0B206801F074F87A6841EC100BA4
:1050700087ED0C0B12B10AB0BDE8F0816C461EA1A1
:1050800020462A463346FBF7D9F92046FBF7E8FAD3
:1050900040F25875C2F2000582B2284621464FF010
:1050A000FF33FEF79DFC97ED100B1AA153EC102B6C
:1050B0002046FBF7C3F92046FBF7D2FA82B2284616
:1050C00021464FF0FF33FEF78BFCC7F804800AB08F
:1050D000BDE8F08154656D703A20252E32660000DF
:1050E000414443313A256875000000004144433291
:1050F0003A256875000000000A0D5669656E6F203C
:1051000063696B6C6F207472756B6D653A20256CEA
:10511000660000000A0D4D6965676F6A696D6F2052
:105120007472756B6D65732073756D613A20256CB3
:1051300066000000B0B50446807C002818BFB0BDF2
:1051400004202070207C4FF48071A4F8111008B165
:1051500001206074002520462574FFF73DFE207C69
:1051600065740028F4D1A574B0BD0000002100F1E1
:105170002802142301708180C0E902118174C0E902
:105180000523C0E9071141627047000040F2780032
:1051900040F28811C2F20000C2F2000190ED040A50
:1051A00091ED003AB0F8582033EE000A03EE102AD1
:1051B00040F22C12C2F2000290ED051A1388B8EEEC
:1051C000433A90ED062A31EE031A03EE103AB0F896
:1051D0005A30B8EE433A32EE032A03EE103A5388BF
:1051E000B8EE433A31EE031A03EE103AB0F85C30F1
:1051F000B8EE433A32EE032A03EE103A9388B8EE43
:10520000433A31EE031A03EE103AB0F85E30B8EECE
:10521000433A32EE032A03EE103AD38891ED014A65
:10522000B8EE433A91ED025A31EE031A03EE103A0A
:1052300091ED036A34EE000AB8EE433A35EE000A07
:1052400032EE032A91ED043AB0F8603036EE000AEF
:1052500033EE000A03EE103A1389B8EE433A31EE0A
:10526000031A03EE103AB8EE433A32EE032A91EDF8
:10527000053AB0F8623033EE000A03EE103A538973
:10528000B8EE433A31EE031A03EE103AB8EE433A61
:1052900032EE032A91ED063AB0F8643033EE000A9C
:1052A00003EE103A9389B8EE433A31EE031A03EE57
:1052B000103AB8EE433A32EE032A91ED073AB0F8CD
:1052C000663033EE000A03EE103AD389B8EE433A63
:1052D00031EE031A03EE103AB8EE433A32EE032AE7
:1052E00091ED083AB0F8683033EE000A03EE103A58
:1052F000138AB8EE433A31EE031A03EE103AB8EED1
:10530000433A32EE032A91ED093AB0F86A3033EEAF
:10531000000A03EE103A538AB8EE433A31EE031A0C
:1053200003EE103AB8EE433A32EE032A91ED0A3A10
:10533000B0F86C3033EE000A03EE103A938AB8EE00
:10534000433A31EE031A03EE103AB8EE433A32EE26
:10535000032A91ED0B3AB0F86E3033EE000A03EEFB
:10536000103AD38AB8EE433A31EE031A03EE103AFC
:10537000B8EE433A32EE032A91ED0C3AB0F87030B1
:1053800033EE000A03EE103A138BB8EE433A31EED7
:10539000031A03EE103AB8EE433A32EE032A91EDC7
:1053A0000D3AB0F8723033EE000A03EE103A538B28
:1053B000B8EE433A31EE031A03EE103AB8EE433A30
:1053C00032EE032A91ED0E3AB0F8741033EE000A73
:1053D00003EE101A918BB8EE433A31EE031A03EE46
:1053E000101AB8EE433A32EE032AB2EE0E3A80EECD
:1053F000030A81EE031A82EE032A0021C0E9041198
:10540000816180ED070A80ED081A80ED092A704756
:105410008169426A8A4208BFFFF738BD4169026A62
:1054200002238B548169D0E9082C013900238A4278
:105430000CF10101B8BF531CC0E90831FFF726BDCC
:105440008169426A8A4208BFFFF720BD4169026A4A
:1054500001238B548169D0E9082C013900238A4249
:105460000CF10101B8BF531CC0E90831FFF70EBDB4
:1054700040F2A070C2F20000016801310160FBF748
:10548000B3BE000040F27800C2F20000818900EB58
:105490004203A3F85810C08940F22C11C2F2000157
:1054A00021F812007047000040F27800C2F20000BC
:1054B000806840F28812C2F2000242F82100704770
:1054C0005FEA400C08BF91F0000F4FEA8C234FEACF
:1054D000C12243EA51514FEA1C5018BF00F5F04079
:1054E0004FEA300018BF41F000415FEA6C5C00F009
:1054F0002980BCF1FF3F08BF40F080407047130C8B
:1055000006BF12044FF0100C4FF0000C130E04BF36
:1055100012020CF1080C130F04BF12010CF1040C61
:10552000930F04BF92000CF1020CD30F04BF520082
:105530000CF1010C11464FF00002A0F11F00A0EB8E
:105540000C00704711F0004F08BF704731F0004168
:105550003FF4D5AF0B0C06BF09044FF0100C4FF011
:10556000000C0B0E04BF09020CF1080C0B0F04BF5A
:1055700009010CF1040C8B0F04BF89000CF1020C23
:10558000CB0F04BF49000CF1010CCCF1200322FA2F
:1055900003F341EA030102FA0CF2A0EB0C0000F164
:1055A0000100704723F07F4720F07F4C80EA030022
:1055B00000F00040ACEB070303F57C5303F1FF035D
:1055C0002DE9804909B44FEA144324EA03484FEA1D
:1055D000154B25EA0B4E0FF2042606EB13273E78F7
:1055E00003FB0667C7F5000707FB06F64FEAD6463A
:1055F00006F102064FEA543707FB066CCCF1005C5B
:105600004FEA1C472CEA074C0CFB06F507FB06F497
:1056100004EB15464FEA961649085FEA320234BF9A
:1056200000204FF000404FEAD13706FB07FC4FEA5D
:105630001C4C0CFB0BF7D21B03FB0CF761EB0701B7
:105640000CFB0EF7B0EB074072EB17420CFB08F7B0
:1056500034BFA2EB0742B2EB074261EB17414FEABE
:105660000C444FEA910706FB07FC4FEA1C4C0CFB6D
:105670000BF7B0EBC74072EB573203FB0CF734BFAC
:10568000A2EBC742B2EBC74261EB57310CFB0EF7FE
:10569000B0EBC70072EB57720CFB08F734BFA2EBFC
:1056A000C702B2EBC70261EB57714FEA816141EA71
:1056B00092114FEA826242EA90124FEA806004EB54
:1056C000CC04039F4FEAD13706FB07FC4FEA1C4C82
:1056D0000CFB0BF7D21B03FB0CF761EB07010CFB78
:1056E0000EF7B0EB074072EB17420CFB08F734BF24
:1056F000A2EB0742B2EB074261EB17414FEA8C5530
:1057000004EB9C244FEA910706FB07FC4FEA1C4C74
:105710000CFB0BF7B0EBC74072EB573203FB0CF7F7
:1057200034BFA2EBC742B2EBC74261EB57310CFB6F
:105730000EF7B0EBC70072EB57720CFB08F734BFE3
:10574000A2EBC702B2EBC70261EB57714FEA81616E
:1057500041EA92114FEA826242EA90124FEA806077
:1057600015EB4C2544F100044FEAD13706FB07FC4A
:105770004FEA1C4C0CFB0BF7D21B03FB0CF761EB45
:1057800007010CFB0EF7B0EB074072EB17420CFB66
:1057900008F734BFA2EB0742B2EB074261EB1741B7
:1057A0004FEA813141EA92414FEA823242EA904225
:1057B0004FEA80304FEA0C7615EB1C1544F10004DB
:1057C00048EA03434EEA0B484FF0000EB2EB080CD8
:1057D00071EB030724BF624639464EEB0E0E4FF0C5
:1057E000000B0018524149414BEB0B0BB2EB080C7C
:1057F00071EB03077BF1000B24BF624639464EEB89
:105800000E0E4FF0000B0018524149414BEB0B0BB1
:10581000B2EB080C71EB03077BF1000B24BF62466F
:1058200039464EEB0E0E51EA020718BF46F001064C
:1058300016EB0E7655F1000254F1000103D5BDE8D8
:105840008901BDE80088BDE88901BDE80048B619B6
:10585000524141EB0101A3F10103704780807F7E3B
:105860007D7C7B7A797877767675747372717170D6
:105870006F6E6E6D6C6C6B6A6A6968686766666588
:105880006464636362616160605F5F5E5E5D5D5C16
:105890005C5B5B5A5A595958585757565655555587
:1058A0005454535352525251515050504F4F4F4EE7
:1058B0004E4D4D4D4C4C4C4B4B4B4A4A4A49494935
:1058C0004848484747474746464645454544444477
:1058D0004443434343424242424141419C46002BA0
:1058E00030D477002BD04FEA37071CB503B44FF004
:1058F00010004FF01001BAF1000F06D0BCF1000FFC
:10590000DCBF40F0080040F008014FF000000FBC81
:10591000BDE810400BF1010BBBF1010F08BF5FEABE
:10592000170722BF12F1010211F101014FF00041EE
:1059300043F1000300F0004043EA00007047F9D350
:105940005708D0E746EA06464FEA164613F1400FDD
:105950001FDD13F1200FDFBF16430A46002120335D
:105960005B42BED0C3F1200746EA06464FEA164620
:1059700002FA07F746EA070622FA03F2C3F1200704
:1059800001FA07F742EA070221FA03F14FF0000398
:10599000A7E746EA020646EA06464FEA164646EA00
:1059A0000106BCBF46EA0646360C4FF000034FF036
:1059B00000024FF0000194E72DE9804C70B49A4644
:1059C000934691E8380007C831EA400C48BF34EAF2
:1059D000430C03D5FFF7E6FDFFF780FFF0BCBDE801
:1059E000008C2DE9804C70B49A46934691E83800BB
:1059F00007C810F0804F08BF13F0804F03D100F0AC
:105A000005F8FFF76BFFF0BCBDE8008C20F07F4786
:105A100023F07F4C80EA030000F0004007EB0C030A
:105A2000A3F57C53A3F1FE0392F0000F00F0B380C6
:105A300095F0000F00F077802DE901494FEA114001
:105A400021EA00484FEA144624EA064700FB06FC18
:105A500008FB06F607FB08F818EB06484CEB164C5B
:105A600000FB07F718EB07484CEB17404FEA124BC7
:105A700022EA0B4E4FEA154625EA06470BFB06FCC9
:105A80000EFB06F607FB0EFE1EEB064E4CEB164C0D
:105A90000BFB07F71EEB074E4CEB174B18EB0B08F5
:105AA00040F1000018EB0E0B58EB000840F100002D
:105AB0008F1A4FF000014FF000063CBFC943661B30
:105AC00014BFB5EB040C00213CBFC943F61B4FEAE1
:105AD000174427EA04454FEA1C472CEA074C04FB0D
